:1000000035EF00F00000000000EF00F000000000FD
:0A0010000000000000000000F3D71C
:08001C00F20E8316838212002C
:08002400F10E83168380120027
:10002C000900F5CFE6FF0006FBE10106F9E112003D
:06003C00F00E8316120015
:0A004200FC0E83160C0E8312120050
:0E004C00670EAF6E240EAC6E920EAB6E1200FD
:06005A00AECF00F0120021
:0A006000030E8312F30E8316120044
:10006A00949C948E956A836AECDFF2DF00C015F0E7
:10007A003CD0F1DF340E0C6EF10E0D6E0D2EFED754
:10008A000C2EFCD7000000003FD0D6DF340E0C6ED9
:10009A00F10E0D6E0D2EFED70C2EFCD700000000BF
:1000AA0033D0BBDF340E0C6EF10E0D6E0D2EFED763
:1000BA000C2EFCD70000000027D0ABDF340E0C6EEC
:1000CA00F10E0D6E0D2EFED70C2EFCD7000000008F
:1000DA001BD0AFDF340E0C6EF10E0D6E0D2EFED757
:1000EA000C2EFCD7000000000FD01550460AC1E0C4
:1000FA001550420ACAE01550520AD3E015504C0A6C
:0C010A00DCE01550530AE5E0B0D7FFD749
:020000040030CA
:0D000100021F1EFF8381FF0FC00FE00F40A4
:00000001FF
